{"abi":[{"type":"constructor","inputs":[{"name":"_axiomV2QueryAddress","type":"address","internalType":"address"},{"name":"_callbackSourceChainId","type":"uint64","internalType":"uint64"},{"name":"_axiomCallbackQuerySchema","type":"bytes32","internalType":"bytes32"}],"stateMutability":"nonpayable"},{"type":"function","name":"MIN_BLOCK_NUMBER","inputs":[],"outputs":[{"name":"","type":"uint32","internalType":"uint32"}],"stateMutability":"view"},{"type":"function","name":"SWAP_EVENT_SCHEMA","inputs":[],"outputs":[{"name":"","type":"bytes32","internalType":"bytes32"}],"stateMutability":"view"},{"type":"function","name":"UNIV3_POOL_UNI_WETH0","inputs":[],"outputs":[{"name":"","type":"address","internalType":"address"}],"stateMutability":"view"},{"type":"function","name":"UNIV3_POOL_UNI_WETH1","inputs":[],"outputs":[{"name":"","type":"address","internalType":"address"}],"stateMutability":"view"},{"type":"function","name":"axiomCallbackQuerySchema","inputs":[],"outputs":[{"name":"","type":"bytes32","internalType":"bytes32"}],"stateMutability":"view"},{"type":"function","name":"axiomV2Callback","inputs":[{"name":"sourceChainId","type":"uint64","internalType":"uint64"},{"name":"caller","type":"address","internalType":"address"},{"name":"querySchema","type":"bytes32","internalType":"bytes32"},{"name":"queryId","type":"uint256","internalType":"uint256"},{"name":"axiomResults","type":"bytes32[]","internalType":"bytes32[]"},{"name":"extraData","type":"bytes","internalType":"bytes"}],"outputs":[],"stateMutability":"nonpayable"},{"type":"function","name":"axiomV2OffchainCallback","inputs":[{"name":"sourceChainId","type":"uint64","internalType":"uint64"},{"name":"caller","type":"address","internalType":"address"},{"name":"querySchema","type":"bytes32","internalType":"bytes32"},{"name":"queryId","type":"uint256","internalType":"uint256"},{"name":"axiomResults","type":"bytes32[]","internalType":"bytes32[]"},{"name":"extraData","type":"bytes","internalType":"bytes"}],"outputs":[],"stateMutability":"nonpayable"},{"type":"function","name":"axiomV2QueryAddress","inputs":[],"outputs":[{"name":"","type":"address","internalType":"address"}],"stateMutability":"view"},{"type":"function","name":"callbackSourceChainId","inputs":[],"outputs":[{"name":"","type":"uint64","internalType":"uint64"}],"stateMutability":"view"},{"type":"function","name":"gamescore","inputs":[],"outputs":[{"name":"","type":"address","internalType":"contract IGameScore"}],"stateMutability":"view"},{"type":"function","name":"lastTimeSwapped","inputs":[{"name":"","type":"address","internalType":"address"}],"outputs":[{"name":"","type":"uint32","internalType":"uint32"}],"stateMutability":"view"},{"type":"function","name":"owner","inputs":[],"outputs":[{"name":"","type":"address","internalType":"address"}],"stateMutability":"view"},{"type":"function","name":"querySubmitted","inputs":[{"name":"","type":"address","internalType":"address"}],"outputs":[{"name":"","type":"bool","internalType":"bool"}],"stateMutability":"view"},{"type":"function","name":"renounceOwnership","inputs":[],"outputs":[],"stateMutability":"nonpayable"},{"type":"function","name":"transferOwnership","inputs":[{"name":"newOwner","type":"address","internalType":"address"}],"outputs":[],"stateMutability":"nonpayable"},{"type":"function","name":"updateCallbackQuerySchema","inputs":[{"name":"_axiomCallbackQuerySchema","type":"bytes32","internalType":"bytes32"}],"outputs":[],"stateMutability":"nonpayable"},{"type":"function","name":"updateGameScoreAddress","inputs":[{"name":"_gamescore","type":"address","internalType":"address"}],"outputs":[],"stateMutability":"nonpayable"},{"type":"event","name":"AxiomCallbackQuerySchemaUpdated","inputs":[{"name":"axiomCallbackQuerySchema","type":"bytes32","indexed":false,"internalType":"bytes32"}],"anonymous":false},{"type":"event","name":"AxiomV2Call","inputs":[{"name":"sourceChainId","type":"uint64","indexed":true,"internalType":"uint64"},{"name":"caller","type":"address","indexed":false,"internalType":"address"},{"name":"querySchema","type":"bytes32","indexed":true,"internalType":"bytes32"},{"name":"queryId","type":"uint256","indexed":true,"internalType":"uint256"}],"anonymous":false},{"type":"event","name":"AxiomV2OffchainCall","inputs":[{"name":"sourceChainId","type":"uint64","indexed":true,"internalType":"uint64"},{"name":"caller","type":"address","indexed":false,"internalType":"address"},{"name":"querySchema","type":"bytes32","indexed":true,"internalType":"bytes32"},{"name":"queryId","type":"uint256","indexed":true,"internalType":"uint256"}],"anonymous":false},{"type":"event","name":"ClaimRevive","inputs":[{"name":"user","type":"address","indexed":true,"internalType":"address"},{"name":"queryId","type":"uint256","indexed":true,"internalType":"uint256"},{"name":"numTokens","type":"uint256","indexed":false,"internalType":"uint256"},{"name":"axiomResults","type":"bytes32[]","indexed":false,"internalType":"bytes32[]"}],"anonymous":false},{"type":"event","name":"ClaimReviveError","inputs":[{"name":"user","type":"address","indexed":true,"internalType":"address"},{"name":"error","type":"string","indexed":false,"internalType":"string"}],"anonymous":false},{"type":"event","name":"GameScoreAddressUpdated","inputs":[{"name":"gamescore","type":"address","indexed":false,"internalType":"address"}],"anonymous":false},{"type":"event","name":"OwnershipTransferred","inputs":[{"name":"previousOwner","type":"address","indexed":true,"internalType":"address"},{"name":"newOwner","type":"address","indexed":true,"internalType":"address"}],"anonymous":false},{"type":"error","name":"AxiomV2QueryAddressIsZero","inputs":[]},{"type":"error","name":"CallerMustBeAxiomV2Query","inputs":[]},{"type":"error","name":"OwnableInvalidOwner","inputs":[{"name":"owner","type":"address","internalType":"address"}]},{"type":"error","name":"OwnableUnauthorizedAccount","inputs":[{"name":"account","type":"address","internalType":"address"}]}],"bytecode":{"object":"0x60a060405234801561001057600080fd5b50604051610ee8380380610ee883398101604081905261002f9161011a565b33836001600160a01b0381166100585760405163d86f565560e01b815260040160405180910390fd5b6001600160a01b03908116608052811661008c57604051631e4fbdf760e01b81526000600482015260240160405180910390fd5b610095816100ca565b50600080546001600160401b03909316600160a01b02600160a01b600160e01b03199093169290921790915560015550610175565b600080546001600160a01b038381166001600160a01b0319831681178455604051919092169283917f8be0079c531659141344cd1fd0a4f28419497f9722a3daafe3b4186f6b6457e09190a35050565b60008060006060848603121561012f57600080fd5b83516001600160a01b038116811461014657600080fd5b60208501519093506001600160401b038116811461016357600080fd5b80925050604084015190509250925092565b608051610d4a61019e600039600081816101630152818161036401526104230152610d4a6000f3fe608060405234801561001057600080fd5b506004361061010b5760003560e01c8063ab72fc09116100a2578063dc5cd53c11610071578063dc5cd53c14610297578063eca203ff146102aa578063f2d7fd84146102bd578063f2fde38b146102c7578063f790c7eb146102da57600080fd5b8063ab72fc091461021f578063b30d643814610252578063cd1cd72514610265578063db9cd92f1461027c57600080fd5b8063715018a6116100de578063715018a6146101b85780638193399c146101c05780638da5cb5b146101d35780638fe94774146101e457600080fd5b8063034606e0146101105780630a50ec5c146101255780632a75d3be1461015e5780634369337d1461019d575b600080fd5b61012361011e366004610b3e565b610301565b005b60005461014090600160a01b900467ffffffffffffffff1681565b60405167ffffffffffffffff90911681526020015b60405180910390f35b6101857f000000000000000000000000000000000000000000000000000000000000000081565b6040516001600160a01b039091168152602001610155565b61018573224cc4e5b50036108c1d862442365054600c260c81565b610123610345565b6101236101ce366004610bbc565b610359565b6000546001600160a01b0316610185565b61020a6101f2366004610c9b565b60036020526000908152604090205463ffffffff1681565b60405163ffffffff9091168152602001610155565b61024261022d366004610c9b565b60026020526000908152604090205460ff1681565b6040519015158152602001610155565b600454610185906001600160a01b031681565b61026e60015481565b604051908152602001610155565b61018573287b0e934ed0439e2a7b1d5f0fc25ea2c24b64f781565b6101236102a5366004610bbc565b610418565b6101236102b8366004610c9b565b6104bd565b61020a623d090081565b6101236102d5366004610c9b565b610513565b61026e7fc42079f94a6350d7e6235f29174924f928cc2ac818eb64fed8004e115fbcca6781565b610309610556565b60018190556040518181527f215a17e0015e11cebc3087027513f0b70572c3b3341a76ef38fbcbbb8193c6ae906020015b60405180910390a150565b61034d610556565b6103576000610583565b565b336001600160a01b037f000000000000000000000000000000000000000000000000000000000000000016146103a2576040516312e71c9f60e11b815260040160405180910390fd5b6040516001600160a01b03881681528590879067ffffffffffffffff8b16907fd6d9923f6afa6ae6afc97c99da22b8ccadc9beafe897857b2434da0a402da98c9060200160405180910390a46103fe60018989898987876105d3565b61040e88888888888888886106b4565b5050505050505050565b336001600160a01b037f00000000000000000000000000000000000000000000000000000000000000001614610461576040516312e71c9f60e11b815260040160405180910390fd5b6040516001600160a01b03881681528590879067ffffffffffffffff8b16907fc6d3309bf887e48755c9a455e332b73641b6bf2fd018e3b608bf21676c4c0af59060200160405180910390a46103fe60008989898987876105d3565b6104c5610556565b600480546001600160a01b0319166001600160a01b0383169081179091556040519081527f7631a59ea638cecd67dec33240ac1b10bd5eda6dbcb69c7e2451729256a559389060200161033a565b61051b610556565b6001600160a01b03811661054a57604051631e4fbdf760e01b8152600060048201526024015b60405180910390fd5b61055381610583565b50565b6000546001600160a01b031633146103575760405163118cdaa760e01b8152336004820152602401610541565b600080546001600160a01b038381166001600160a01b0319831681178455604051919092169283917f8be0079c531659141344cd1fd0a4f28419497f9722a3daafe3b4186f6b6457e09190a35050565b60005467ffffffffffffffff878116600160a01b909204161461064a5760405162461bcd60e51b815260206004820152602960248201527f4175746f6e6f6d6f757341697264726f703a20736f75726365436861696e4964604482015268040dad2e6dac2e8c6d60bb1b6064820152608401610541565b60015484146106ab5760405162461bcd60e51b815260206004820152602760248201527f4175746f6e6f6d6f757341697264726f703a207175657279536368656d61206d6044820152660d2e6dac2e8c6d60cb1b6064820152608401610541565b50505050505050565b6000848460008181106106c9576106c9610cbd565b9050602002013560001c90506000858560018181106106ea576106ea610cbd565b9050602002013560001c905060008686600281811061070b5761070b610cbd565b9050602002013560001c90506107298a848463ffffffff1684610ab4565b896001600160a01b0316836001600160a01b0316146107c25760405162461bcd60e51b815260206004820152604960248201527f4175746f6e6f6d6f75732041697264726f703a2055736572206164647265737360448201527f20696e20726573756c747320646f6573206e6f74206d617463682063616c6c6560648201526872206164647265737360b81b608482015260a401610541565b623d090063ffffffff8316101561085d5760405162461bcd60e51b815260206004820152605360248201527f4175746f6e6f6d6f75732041697264726f703a20426c6f636b206e756d62657260448201527f20666f72207472616e73616374696f6e2072656365697074206d757374206265606482015272101a1818181818181037b91033b932b0ba32b960691b608482015260a401610541565b6001600160a01b03811673224cc4e5b50036108c1d862442365054600c260c14806108a457506001600160a01b03811673287b0e934ed0439e2a7b1d5f0fc25ea2c24b64f7145b61093c5760405162461bcd60e51b815260206004820152605c60248201527f4175746f6e6f6d6f75732041697264726f703a2041646472657373207468617460448201527f20656d697474656420605377617060206576656e74206973206e6f742074686560648201527f20556e69563320554e492d5745544820706f6f6c206164647265737300000000608482015260a401610541565b6001600160a01b038a1660009081526003602052604090205463ffffffff908116908316116109d5576040805162461bcd60e51b81526020600482015260248101919091527f4175746f6e6f6d6f75732041697264726f703a20557365722068617320616c7260448201527f656164792072657669766564207573696e67207468697320737761707065642e6064820152608401610541565b6001600160a01b038a811660008181526003602052604090819020805463ffffffff191663ffffffff87161790556004805491516380d74c2760e01b81529081019290925260016024830152909116906380d74c2790604401600060405180830381600087803b158015610a4857600080fd5b505af1158015610a5c573d6000803e3d6000fd5b50505050878a6001600160a01b03167f2016d354115cda4abb68531ee8a9bc68c573dcb4f6b36f13a34172a9d2681d6260018a8a604051610a9f93929190610cd3565b60405180910390a35050505050505050505050565b6040516001600160a01b03808616602483015280851660448301526064820184905282166084820152610b139060a40160408051601f198184030181529190526020810180516001600160e01b0316638da6def560e01b179052610b19565b50505050565b6105538180516a636f6e736f6c652e6c6f67602083016000808483855afa5050505050565b600060208284031215610b5057600080fd5b5035919050565b80356001600160a01b0381168114610b6e57600080fd5b919050565b60008083601f840112610b8557600080fd5b50813567ffffffffffffffff811115610b9d57600080fd5b602083019150836020828501011115610bb557600080fd5b9250929050565b60008060008060008060008060c0898b031215610bd857600080fd5b883567ffffffffffffffff8082168214610bf157600080fd5b819950610c0060208c01610b57565b985060408b0135975060608b0135965060808b0135915080821115610c2457600080fd5b818b0191508b601f830112610c3857600080fd5b813581811115610c4757600080fd5b8c60208260051b8501011115610c5c57600080fd5b6020830196508095505060a08b0135915080821115610c7a57600080fd5b50610c878b828c01610b73565b999c989b5096995094979396929594505050565b600060208284031215610cad57600080fd5b610cb682610b57565b9392505050565b634e487b7160e01b600052603260045260246000fd5b838152604060208201819052810182905260006001600160fb1b03831115610cfa57600080fd5b8260051b808560608501379190910160600194935050505056fea2646970667358221220db2cb0c58eba0acdb91540da2528e6025b4f110e1e5852160932ab6fcfb06ea164736f6c63430008170033","linkReferences":{}},"methodIdentifiers":{"MIN_BLOCK_NUMBER()":"f2d7fd84","SWAP_EVENT_SCHEMA()":"f790c7eb","UNIV3_POOL_UNI_WETH0()":"4369337d","UNIV3_POOL_UNI_WETH1()":"db9cd92f","axiomCallbackQuerySchema()":"cd1cd725","axiomV2Callback(uint64,address,bytes32,uint256,bytes32[],bytes)":"dc5cd53c","axiomV2OffchainCallback(uint64,address,bytes32,uint256,bytes32[],bytes)":"8193399c","axiomV2QueryAddress()":"2a75d3be","callbackSourceChainId()":"0a50ec5c","gamescore()":"b30d6438","lastTimeSwapped(address)":"8fe94774","owner()":"8da5cb5b","querySubmitted(address)":"ab72fc09","renounceOwnership()":"715018a6","transferOwnership(address)":"f2fde38b","updateCallbackQuerySchema(bytes32)":"034606e0","updateGameScoreAddress(address)":"eca203ff"},"id":43}