{"abi":[{"type":"constructor","inputs":[{"name":"_axiomAddress","type":"address","internalType":"address"}],"stateMutability":"nonpayable"},{"type":"receive","stateMutability":"payable"},{"type":"function","name":"changeReviveStatus","inputs":[{"name":"_player","type":"address","internalType":"address"},{"name":"_result","type":"bool","internalType":"bool"}],"outputs":[],"stateMutability":"nonpayable"},{"type":"function","name":"depositReward","inputs":[],"outputs":[],"stateMutability":"payable"},{"type":"function","name":"payReward","inputs":[],"outputs":[],"stateMutability":"nonpayable"},{"type":"function","name":"revival","inputs":[{"name":"","type":"address","internalType":"address"}],"outputs":[{"name":"","type":"bool","internalType":"bool"}],"stateMutability":"view"},{"type":"function","name":"scores","inputs":[{"name":"","type":"address","internalType":"address"}],"outputs":[{"name":"player","type":"address","internalType":"address"},{"name":"score","type":"uint256","internalType":"uint256"},{"name":"day","type":"uint256","internalType":"uint256"}],"stateMutability":"view"},{"type":"function","name":"setAuthorizedContract","inputs":[{"name":"_contract","type":"address","internalType":"address"}],"outputs":[],"stateMutability":"nonpayable"},{"type":"function","name":"updateScore","inputs":[{"name":"_score","type":"uint256","internalType":"uint256"}],"outputs":[],"stateMutability":"nonpayable"},{"type":"event","name":"RewardPaid","inputs":[{"name":"player","type":"address","indexed":false,"internalType":"address"},{"name":"amount","type":"uint256","indexed":false,"internalType":"uint256"}],"anonymous":false},{"type":"event","name":"ScoreUpdated","inputs":[{"name":"player","type":"address","indexed":false,"internalType":"address"},{"name":"score","type":"uint256","indexed":false,"internalType":"uint256"},{"name":"day","type":"uint256","indexed":false,"internalType":"uint256"}],"anonymous":false}],"bytecode":{"object":"0x608060405234801561001057600080fd5b5060405161074538038061074583398101604081905261002f91610062565b60038054336001600160a01b031991821617909155600480549091166001600160a01b0392909216919091179055610092565b60006020828403121561007457600080fd5b81516001600160a01b038116811461008b57600080fd5b9392505050565b6106a4806100a16000396000f3fe6080604052600436106100745760003560e01c806380d74c271161004e57806380d74c271461010f5780639aad69e71461012f578063d8d053581461014f578063f853e34d1461018f57600080fd5b80635ec2dc8d1461008057806376dd110f1461008a5780637842a3a4146100fa57600080fd5b3661007b57005b600080fd5b6100886101af565b005b34801561009657600080fd5b506100d06100a53660046105d0565b6005602052600090815260409020805460018201546002909201546001600160a01b03909116919083565b604080516001600160a01b0390941684526020840192909252908201526060015b60405180910390f35b34801561010657600080fd5b50610088610210565b34801561011b57600080fd5b5061008861012a3660046105f2565b6103d0565b34801561013b57600080fd5b5061008861014a3660046105d0565b610468565b34801561015b57600080fd5b5061017f61016a3660046105d0565b60066020526000908152604090205460ff1681565b60405190151581526020016100f1565b34801561019b57600080fd5b506100886101aa36600461062e565b6104f7565b6003546001600160a01b0316331461020e5760405162461bcd60e51b815260206004820152601d60248201527f4f6e6c79206f776e65722063616e206465706f7369742072657761726400000060448201526064015b60405180910390fd5b565b6000546102209062015180610647565b42116102815760405162461bcd60e51b815260206004820152602a60248201527f5265776172642063616e206f6e6c792062652070616964206166746572207468604482015269652064617920656e647360b01b6064820152608401610205565b6003546001600160a01b031633146102db5760405162461bcd60e51b815260206004820152601960248201527f4f6e6c79206f776e65722063616e2070617920726577617264000000000000006044820152606401610205565b6001546001600160a01b03166103335760405162461bcd60e51b815260206004820152601960248201527f4e6f20746f7020706c6179657220666f722074686520646179000000000000006044820152606401610205565b60015460405147916001600160a01b03169082156108fc029083906000818181858888f1935050505015801561036d573d6000803e3d6000fd5b50600154604080516001600160a01b039092168252602082018390527fe2403640ba68fed3a2f88b7557551d1993f84b99bb10ff833f0cf8db0c5e0486910160405180910390a150426000908155600255600180546001600160a01b0319169055565b6004546001600160a01b0316331461043d5760405162461bcd60e51b815260206004820152602a60248201527f4f6e6c7920617574686f72697a6564436f6e74726163742063616e206368616e60448201526919d9481c995d9a5d985b60b21b6064820152608401610205565b6001600160a01b03919091166000908152600660205260409020805460ff1916911515919091179055565b6003546001600160a01b031633146104d55760405162461bcd60e51b815260206004820152602a60248201527f4f6e6c79206f776e65722063616e207365742074686520617574686f72697a65604482015269190818dbdb9d1c9858dd60b21b6064820152608401610205565b600480546001600160a01b0319166001600160a01b0392909216919091179055565b600254811115610519576002819055600180546001600160a01b031916331790555b60408051606080820183523380835260208084018681526000805486880190815284825260058452878220965187546001600160a01b0319166001600160a01b0390911617875591516001870155905160029095019490945592548451918252928101859052928301919091527f91878448ef87c3db4aeb83e60e7deb1240ecae3fd04975ec93547398514cb4ed910160405180910390a150565b80356001600160a01b03811681146105cb57600080fd5b919050565b6000602082840312156105e257600080fd5b6105eb826105b4565b9392505050565b6000806040838503121561060557600080fd5b61060e836105b4565b91506020830135801515811461062357600080fd5b809150509250929050565b60006020828403121561064057600080fd5b5035919050565b8082018082111561066857634e487b7160e01b600052601160045260246000fd5b9291505056fea26469706673582212209b069cef3d38631f069a65429f8141b1072f2104084a4ad68e4141099829748064736f6c63430008170033","linkReferences":{}},"methodIdentifiers":{"changeReviveStatus(address,bool)":"80d74c27","depositReward()":"5ec2dc8d","payReward()":"7842a3a4","revival(address)":"d8d05358","scores(address)":"76dd110f","setAuthorizedContract(address)":"9aad69e7","updateScore(uint256)":"f853e34d"},"id":43}